{
  "contractName": "CryptoNft",
  "abi": [
    {
      "inputs": [],
      "stateMutability": "nonpayable",
      "type": "constructor"
    },
    {
      "anonymous": false,
      "inputs": [
        {
          "indexed": true,
          "internalType": "address",
          "name": "from",
          "type": "address"
        },
        {
          "indexed": true,
          "internalType": "address",
          "name": "to",
          "type": "address"
        },
        {
          "indexed": true,
          "internalType": "uint256",
          "name": "tokenId",
          "type": "uint256"
        }
      ],
      "name": "Transfer",
      "type": "event"
    },
    {
      "inputs": [
        {
          "internalType": "address",
          "name": "_owner",
          "type": "address"
        }
      ],
      "name": "balanceOf",
      "outputs": [
        {
          "internalType": "uint256",
          "name": "",
          "type": "uint256"
        }
      ],
      "stateMutability": "view",
      "type": "function",
      "constant": true
    },
    {
      "inputs": [
        {
          "internalType": "uint256",
          "name": "",
          "type": "uint256"
        }
      ],
      "name": "cryptoNftInfo",
      "outputs": [
        {
          "internalType": "string",
          "name": "",
          "type": "string"
        }
      ],
      "stateMutability": "view",
      "type": "function",
      "constant": true
    },
    {
      "inputs": [],
      "name": "name",
      "outputs": [
        {
          "internalType": "string",
          "name": "",
          "type": "string"
        }
      ],
      "stateMutability": "view",
      "type": "function",
      "constant": true
    },
    {
      "inputs": [
        {
          "internalType": "uint256",
          "name": "_tokenId",
          "type": "uint256"
        }
      ],
      "name": "ownerOf",
      "outputs": [
        {
          "internalType": "address",
          "name": "",
          "type": "address"
        }
      ],
      "stateMutability": "view",
      "type": "function",
      "constant": true
    },
    {
      "inputs": [],
      "name": "symbol",
      "outputs": [
        {
          "internalType": "string",
          "name": "",
          "type": "string"
        }
      ],
      "stateMutability": "view",
      "type": "function",
      "constant": true
    },
    {
      "inputs": [
        {
          "internalType": "uint256",
          "name": "_index",
          "type": "uint256"
        }
      ],
      "name": "tokenByIndex",
      "outputs": [
        {
          "internalType": "uint256",
          "name": "",
          "type": "uint256"
        }
      ],
      "stateMutability": "view",
      "type": "function",
      "constant": true
    },
    {
      "inputs": [],
      "name": "totalSupply",
      "outputs": [
        {
          "internalType": "uint256",
          "name": "",
          "type": "uint256"
        }
      ],
      "stateMutability": "view",
      "type": "function",
      "constant": true
    },
    {
      "inputs": [
        {
          "internalType": "string",
          "name": "_nft",
          "type": "string"
        }
      ],
      "name": "mint",
      "outputs": [],
      "stateMutability": "nonpayable",
      "type": "function"
    }
  ],
  "bytecode": "0x60806040523480156200001157600080fd5b506040518060400160405280600981526020017f43727970746f4e667400000000000000000000000000000000000000000000008152506040518060400160405280600481526020017f434e4654000000000000000000000000000000000000000000000000000000008152508181816000908051906020019062000098929190620000bc565b508060019080519060200190620000b1929190620000bc565b5050505050620001d0565b828054620000ca906200019b565b90600052602060002090601f016020900481019282620000ee57600085556200013a565b82601f106200010957805160ff19168380011785556200013a565b828001600101855582156200013a579182015b82811115620001395782518255916020019190600101906200011c565b5b5090506200014991906200014d565b5090565b5b80821115620001685760008160009055506001016200014e565b5090565b7f4e487b7100000000000000000000000000000000000000000000000000000000600052602260045260246000fd5b60006002820490506001821680620001b457607f821691505b602082108103620001ca57620001c96200016c565b5b50919050565b6111d080620001e06000396000f3fe608060405234801561001057600080fd5b50600436106100885760003560e01c80636f20b8c31161005b5780636f20b8c31461012957806370a082311461015957806395d89b4114610189578063d85d3d27146101a757610088565b806306fdde031461008d57806318160ddd146100ab5780634f6ccce7146100c95780636352211e146100f9575b600080fd5b6100956101c3565b6040516100a29190610a1d565b60405180910390f35b6100b3610255565b6040516100c09190610a58565b60405180910390f35b6100e360048036038101906100de9190610ab3565b610262565b6040516100f09190610a58565b60405180910390f35b610113600480360381019061010e9190610ab3565b6102dd565b6040516101209190610b21565b60405180910390f35b610143600480360381019061013e9190610ab3565b61038e565b6040516101509190610a1d565b60405180910390f35b610173600480360381019061016e9190610b68565b61043a565b6040516101809190610a58565b60405180910390f35b6101916104f1565b60405161019e9190610a1d565b60405180910390f35b6101c160048036038101906101bc9190610cca565b610583565b005b6060600080546101d290610d42565b80601f01602080910402602001604051908101604052809291908181526020018280546101fe90610d42565b801561024b5780601f106102205761010080835404028352916020019161024b565b820191906000526020600020905b81548152906001019060200180831161022e57829003601f168201915b5050505050905090565b6000600480549050905090565b6000808210158015610278575060048054905082105b6102b7576040517f08c379a00000000000000000000000000000000000000000000000000000000081526004016102ae90610dbf565b60405180910390fd5b600482815481106102cb576102ca610ddf565b5b90600052602060002001549050919050565b6000806002600084815260200190815260200160002060009054906101000a900473ffffffffffffffffffffffffffffffffffffffff169050600073ffffffffffffffffffffffffffffffffffffffff168173ffffffffffffffffffffffffffffffffffffffff1603610385576040517f08c379a000000000000000000000000000000000000000000000000000000000815260040161037c90610e80565b60405180910390fd5b80915050919050565b6008818154811061039e57600080fd5b9060005260206000200160009150905080546103b990610d42565b80601f01602080910402602001604051908101604052809291908181526020018280546103e590610d42565b80156104325780601f1061040757610100808354040283529160200191610432565b820191906000526020600020905b81548152906001019060200180831161041557829003601f168201915b505050505081565b60008073ffffffffffffffffffffffffffffffffffffffff168273ffffffffffffffffffffffffffffffffffffffff16036104aa576040517f08c379a00000000000000000000000000000000000000000000000000000000081526004016104a190610f12565b60405180910390fd5b600360008373ffffffffffffffffffffffffffffffffffffffff1673ffffffffffffffffffffffffffffffffffffffff168152602001908152602001600020549050919050565b60606001805461050090610d42565b80601f016020809104026020016040519081016040528092919081815260200182805461052c90610d42565b80156105795780601f1061054e57610100808354040283529160200191610579565b820191906000526020600020905b81548152906001019060200180831161055c57829003601f168201915b5050505050905090565b6009816040516105939190610f6e565b908152602001604051809103902060009054906101000a900460ff16156105ef576040517f08c379a00000000000000000000000000000000000000000000000000000000081526004016105e690610fd1565b60405180910390fd5b60088190806001815401808255809150506001900390600052602060002001600090919091909150908051906020019061062a9291906108e1565b506000600160088054905061063f9190611020565b905061064b3382610686565b600160098360405161065d9190610f6e565b908152602001604051809103902060006101000a81548160ff0219169083151502179055505050565b610690828261069d565b610699816108b5565b5050565b600073ffffffffffffffffffffffffffffffffffffffff168273ffffffffffffffffffffffffffffffffffffffff160361070c576040517f08c379a0000000000000000000000000000000000000000000000000000000008152600401610703906110a0565b60405180910390fd5b600073ffffffffffffffffffffffffffffffffffffffff166002600083815260200190815260200160002060009054906101000a900473ffffffffffffffffffffffffffffffffffffffff1673ffffffffffffffffffffffffffffffffffffffff16146107ae576040517f08c379a00000000000000000000000000000000000000000000000000000000081526004016107a590611132565b60405180910390fd5b816002600083815260200190815260200160002060006101000a81548173ffffffffffffffffffffffffffffffffffffffff021916908373ffffffffffffffffffffffffffffffffffffffff160217905550600360008373ffffffffffffffffffffffffffffffffffffffff1673ffffffffffffffffffffffffffffffffffffffff168152602001908152602001600020600081548092919061085090611152565b9190505550808273ffffffffffffffffffffffffffffffffffffffff16600073ffffffffffffffffffffffffffffffffffffffff167fddf252ad1be2c89b69c2b068fc378daa952ba7f163c4a11628f55a4df523b3ef60405160405180910390a45050565b600481908060018154018082558091505060019003906000526020600020016000909190919091505550565b8280546108ed90610d42565b90600052602060002090601f01602090048101928261090f5760008555610956565b82601f1061092857805160ff1916838001178555610956565b82800160010185558215610956579182015b8281111561095557825182559160200191906001019061093a565b5b5090506109639190610967565b5090565b5b80821115610980576000816000905550600101610968565b5090565b600081519050919050565b600082825260208201905092915050565b60005b838110156109be5780820151818401526020810190506109a3565b838111156109cd576000848401525b50505050565b6000601f19601f8301169050919050565b60006109ef82610984565b6109f9818561098f565b9350610a098185602086016109a0565b610a12816109d3565b840191505092915050565b60006020820190508181036000830152610a3781846109e4565b905092915050565b6000819050919050565b610a5281610a3f565b82525050565b6000602082019050610a6d6000830184610a49565b92915050565b6000604051905090565b600080fd5b600080fd5b610a9081610a3f565b8114610a9b57600080fd5b50565b600081359050610aad81610a87565b92915050565b600060208284031215610ac957610ac8610a7d565b5b6000610ad784828501610a9e565b91505092915050565b600073ffffffffffffffffffffffffffffffffffffffff82169050919050565b6000610b0b82610ae0565b9050919050565b610b1b81610b00565b82525050565b6000602082019050610b366000830184610b12565b92915050565b610b4581610b00565b8114610b5057600080fd5b50565b600081359050610b6281610b3c565b92915050565b600060208284031215610b7e57610b7d610a7d565b5b6000610b8c84828501610b53565b91505092915050565b600080fd5b600080fd5b7f4e487b7100000000000000000000000000000000000000000000000000000000600052604160045260246000fd5b610bd7826109d3565b810181811067ffffffffffffffff82111715610bf657610bf5610b9f565b5b80604052505050565b6000610c09610a73565b9050610c158282610bce565b919050565b600067ffffffffffffffff821115610c3557610c34610b9f565b5b610c3e826109d3565b9050602081019050919050565b82818337600083830152505050565b6000610c6d610c6884610c1a565b610bff565b905082815260208101848484011115610c8957610c88610b9a565b5b610c94848285610c4b565b509392505050565b600082601f830112610cb157610cb0610b95565b5b8135610cc1848260208601610c5a565b91505092915050565b600060208284031215610ce057610cdf610a7d565b5b600082013567ffffffffffffffff811115610cfe57610cfd610a82565b5b610d0a84828501610c9c565b91505092915050565b7f4e487b7100000000000000000000000000000000000000000000000000000000600052602260045260246000fd5b60006002820490506001821680610d5a57607f821691505b602082108103610d6d57610d6c610d13565b5b50919050565b7f4572726f722120496e76616c696420746f6b656e20696e646578210000000000600082015250565b6000610da9601b8361098f565b9150610db482610d73565b602082019050919050565b60006020820190508181036000830152610dd881610d9c565b9050919050565b7f4e487b7100000000000000000000000000000000000000000000000000000000600052603260045260246000fd5b7f4572726f722120546f6b656e20696420717565727920666f72206e6f6e2d657860008201527f697374656e74206f776e65722e00000000000000000000000000000000000000602082015250565b6000610e6a602d8361098f565b9150610e7582610e0e565b604082019050919050565b60006020820190508181036000830152610e9981610e5d565b9050919050565b7f4572726f7221204e4654732061737369676e656420746f207a65726f2061646460008201527f726573732061726520636f6e7369646572656420696e76616c69642e00000000602082015250565b6000610efc603c8361098f565b9150610f0782610ea0565b604082019050919050565b60006020820190508181036000830152610f2b81610eef565b9050919050565b600081905092915050565b6000610f4882610984565b610f528185610f32565b9350610f628185602086016109a0565b80840191505092915050565b6000610f7a8284610f3d565b915081905092915050565b7f4572726f7220212054686973206e667420616c72656164792065786973746564600082015250565b6000610fbb60208361098f565b9150610fc682610f85565b602082019050919050565b60006020820190508181036000830152610fea81610fae565b9050919050565b7f4e487b7100000000000000000000000000000000000000000000000000000000600052601160045260246000fd5b600061102b82610a3f565b915061103683610a3f565b92508282101561104957611048610ff1565b5b828203905092915050565b7f4572726f722120496e76616c696420696e707574206164647265737321000000600082015250565b600061108a601d8361098f565b915061109582611054565b602082019050919050565b600060208201905081810360008301526110b98161107d565b9050919050565b7f4572726f72212054686520746f6b656e2068617320616c72656164792062656560008201527f6e206d696e7465642e0000000000000000000000000000000000000000000000602082015250565b600061111c60298361098f565b9150611127826110c0565b604082019050919050565b6000602082019050818103600083015261114b8161110f565b9050919050565b600061115d82610a3f565b91507fffffffffffffffffffffffffffffffffffffffffffffffffffffffffffffffff820361118f5761118e610ff1565b5b60018201905091905056fea2646970667358221220a0c239fc3aff7a2d36dc03b8a53ad85f3cc3f20573c519609ae5325840cd26f664736f6c634300080e0033",
  "immutableReferences": {},
  "source": "// SPDX-License-Identifier: MIT\npragma solidity ^0.8.0;\n\nimport './ERC721Connector.sol';\n\ncontract CryptoNft is ERC721Connector {\n   \n    string[] public cryptoNftInfo;\n    mapping(string => bool) _cryptoNftExists;\n\n    constructor() ERC721Connector(\"CryptoNft\", \"CNFT\") {\n    \n    }\n\n    function mint(string memory _nft) public {\n        require(!_cryptoNftExists[_nft], \"Error ! This nft already existed\");\n        cryptoNftInfo.push(_nft);\n        uint _id = cryptoNftInfo.length - 1;\n        _mint(msg.sender, _id);\n        _cryptoNftExists[_nft] = true;\n    }\n}",
  "sourcePath": "/Volumes/Multimedia/Work/Solidity/Projects/nft-marketplace-source-main/src/contracts/CryptoNft.sol",
  "compiler": {
    "name": "solc",
    "version": "0.8.14+commit.80d49f37.Emscripten.clang"
  },
  "schemaVersion": "3.4.7",
  "updatedAt": "2022-06-04T07:27:45.687Z",
  "networkType": "ethereum",
  "devdoc": {
    "kind": "dev",
    "methods": {},
    "version": 1
  },
  "userdoc": {
    "kind": "user",
    "methods": {},
    "version": 1
  }
}