{
  "contractName": "CryptoNft",
  "abi": [
    {
      "inputs": [],
      "stateMutability": "nonpayable",
      "type": "constructor"
    },
    {
      "anonymous": false,
      "inputs": [
        {
          "indexed": true,
          "internalType": "address",
          "name": "from",
          "type": "address"
        },
        {
          "indexed": true,
          "internalType": "address",
          "name": "to",
          "type": "address"
        },
        {
          "indexed": true,
          "internalType": "uint256",
          "name": "tokenId",
          "type": "uint256"
        }
      ],
      "name": "Transfer",
      "type": "event"
    },
    {
      "inputs": [
        {
          "internalType": "uint256",
          "name": "",
          "type": "uint256"
        }
      ],
      "name": "cryptoNftInfo",
      "outputs": [
        {
          "internalType": "string",
          "name": "",
          "type": "string"
        }
      ],
      "stateMutability": "view",
      "type": "function",
      "constant": true
    },
    {
      "inputs": [],
      "name": "name",
      "outputs": [
        {
          "internalType": "string",
          "name": "",
          "type": "string"
        }
      ],
      "stateMutability": "view",
      "type": "function",
      "constant": true
    },
    {
      "inputs": [],
      "name": "symbol",
      "outputs": [
        {
          "internalType": "string",
          "name": "",
          "type": "string"
        }
      ],
      "stateMutability": "view",
      "type": "function",
      "constant": true
    },
    {
      "inputs": [
        {
          "internalType": "string",
          "name": "_nft",
          "type": "string"
        }
      ],
      "name": "mint",
      "outputs": [],
      "stateMutability": "nonpayable",
      "type": "function"
    }
  ],
  "bytecode": "0x60806040523480156200001157600080fd5b506040518060400160405280600981526020017f43727970746f4e667400000000000000000000000000000000000000000000008152506040518060400160405280600481526020017f434e4654000000000000000000000000000000000000000000000000000000008152508181816000908051906020019062000098929190620000bc565b508060019080519060200190620000b1929190620000bc565b5050505050620001d0565b828054620000ca906200019b565b90600052602060002090601f016020900481019282620000ee57600085556200013a565b82601f106200010957805160ff19168380011785556200013a565b828001600101855582156200013a579182015b82811115620001395782518255916020019190600101906200011c565b5b5090506200014991906200014d565b5090565b5b80821115620001685760008160009055506001016200014e565b5090565b7f4e487b7100000000000000000000000000000000000000000000000000000000600052602260045260246000fd5b60006002820490506001821680620001b457607f821691505b602082108103620001ca57620001c96200016c565b5b50919050565b610c1580620001e06000396000f3fe608060405234801561001057600080fd5b506004361061004c5760003560e01c806306fdde03146100515780636f20b8c31461006f57806395d89b411461009f578063d85d3d27146100bd575b600080fd5b6100596100d9565b6040516100669190610700565b60405180910390f35b6100896004803603810190610084919061076c565b61016b565b6040516100969190610700565b60405180910390f35b6100a7610217565b6040516100b49190610700565b60405180910390f35b6100d760048036038101906100d291906108ce565b6102a9565b005b6060600080546100e890610946565b80601f016020809104026020016040519081016040528092919081815260200182805461011490610946565b80156101615780601f1061013657610100808354040283529160200191610161565b820191906000526020600020905b81548152906001019060200180831161014457829003601f168201915b5050505050905090565b6004818154811061017b57600080fd5b90600052602060002001600091509050805461019690610946565b80601f01602080910402602001604051908101604052809291908181526020018280546101c290610946565b801561020f5780601f106101e45761010080835404028352916020019161020f565b820191906000526020600020905b8154815290600101906020018083116101f257829003601f168201915b505050505081565b60606001805461022690610946565b80601f016020809104026020016040519081016040528092919081815260200182805461025290610946565b801561029f5780601f106102745761010080835404028352916020019161029f565b820191906000526020600020905b81548152906001019060200180831161028257829003601f168201915b5050505050905090565b6005816040516102b991906109b3565b908152602001604051809103902060009054906101000a900460ff1615610315576040517f08c379a000000000000000000000000000000000000000000000000000000000815260040161030c90610a16565b60405180910390fd5b6004819080600181540180825580915050600190039060005260206000200160009091909190915090805190602001906103509291906105c4565b50600060016004805490506103659190610a65565b905061037133826103ac565b600160058360405161038391906109b3565b908152602001604051809103902060006101000a81548160ff0219169083151502179055505050565b600073ffffffffffffffffffffffffffffffffffffffff168273ffffffffffffffffffffffffffffffffffffffff160361041b576040517f08c379a000000000000000000000000000000000000000000000000000000000815260040161041290610ae5565b60405180910390fd5b600073ffffffffffffffffffffffffffffffffffffffff166002600083815260200190815260200160002060009054906101000a900473ffffffffffffffffffffffffffffffffffffffff1673ffffffffffffffffffffffffffffffffffffffff16146104bd576040517f08c379a00000000000000000000000000000000000000000000000000000000081526004016104b490610b77565b60405180910390fd5b816002600083815260200190815260200160002060006101000a81548173ffffffffffffffffffffffffffffffffffffffff021916908373ffffffffffffffffffffffffffffffffffffffff160217905550600360008373ffffffffffffffffffffffffffffffffffffffff1673ffffffffffffffffffffffffffffffffffffffff168152602001908152602001600020600081548092919061055f90610b97565b9190505550808273ffffffffffffffffffffffffffffffffffffffff16600073ffffffffffffffffffffffffffffffffffffffff167fddf252ad1be2c89b69c2b068fc378daa952ba7f163c4a11628f55a4df523b3ef60405160405180910390a45050565b8280546105d090610946565b90600052602060002090601f0160209004810192826105f25760008555610639565b82601f1061060b57805160ff1916838001178555610639565b82800160010185558215610639579182015b8281111561063857825182559160200191906001019061061d565b5b509050610646919061064a565b5090565b5b8082111561066357600081600090555060010161064b565b5090565b600081519050919050565b600082825260208201905092915050565b60005b838110156106a1578082015181840152602081019050610686565b838111156106b0576000848401525b50505050565b6000601f19601f8301169050919050565b60006106d282610667565b6106dc8185610672565b93506106ec818560208601610683565b6106f5816106b6565b840191505092915050565b6000602082019050818103600083015261071a81846106c7565b905092915050565b6000604051905090565b600080fd5b600080fd5b6000819050919050565b61074981610736565b811461075457600080fd5b50565b60008135905061076681610740565b92915050565b6000602082840312156107825761078161072c565b5b600061079084828501610757565b91505092915050565b600080fd5b600080fd5b7f4e487b7100000000000000000000000000000000000000000000000000000000600052604160045260246000fd5b6107db826106b6565b810181811067ffffffffffffffff821117156107fa576107f96107a3565b5b80604052505050565b600061080d610722565b905061081982826107d2565b919050565b600067ffffffffffffffff821115610839576108386107a3565b5b610842826106b6565b9050602081019050919050565b82818337600083830152505050565b600061087161086c8461081e565b610803565b90508281526020810184848401111561088d5761088c61079e565b5b61089884828561084f565b509392505050565b600082601f8301126108b5576108b4610799565b5b81356108c584826020860161085e565b91505092915050565b6000602082840312156108e4576108e361072c565b5b600082013567ffffffffffffffff81111561090257610901610731565b5b61090e848285016108a0565b91505092915050565b7f4e487b7100000000000000000000000000000000000000000000000000000000600052602260045260246000fd5b6000600282049050600182168061095e57607f821691505b60208210810361097157610970610917565b5b50919050565b600081905092915050565b600061098d82610667565b6109978185610977565b93506109a7818560208601610683565b80840191505092915050565b60006109bf8284610982565b915081905092915050565b7f4572726f7220212054686973206e667420616c72656164792065786973746564600082015250565b6000610a00602083610672565b9150610a0b826109ca565b602082019050919050565b60006020820190508181036000830152610a2f816109f3565b9050919050565b7f4e487b7100000000000000000000000000000000000000000000000000000000600052601160045260246000fd5b6000610a7082610736565b9150610a7b83610736565b925082821015610a8e57610a8d610a36565b5b828203905092915050565b7f4572726f722120496e76616c696420696e707574206164647265737321000000600082015250565b6000610acf601d83610672565b9150610ada82610a99565b602082019050919050565b60006020820190508181036000830152610afe81610ac2565b9050919050565b7f4572726f72212054686520746f6b656e2068617320616c72656164792062656560008201527f6e206d696e7465642e0000000000000000000000000000000000000000000000602082015250565b6000610b61602983610672565b9150610b6c82610b05565b604082019050919050565b60006020820190508181036000830152610b9081610b54565b9050919050565b6000610ba282610736565b91507fffffffffffffffffffffffffffffffffffffffffffffffffffffffffffffffff8203610bd457610bd3610a36565b5b60018201905091905056fea2646970667358221220718ebbb594fbf1245416d192f3eb499536c15a88336111d7ec36ab36c6456cbc64736f6c634300080e0033",
  "immutableReferences": {},
  "source": "// SPDX-License-Identifier: MIT\npragma solidity ^0.8.0;\n\nimport './ERC721Connector.sol';\n\ncontract CryptoNft is ERC721Connector {\n   \n    string[] public cryptoNftInfo;\n    mapping(string => bool) _cryptoNftExists;\n\n    constructor() ERC721Connector(\"CryptoNft\", \"CNFT\") {\n    \n    }\n\n    function mint(string memory _nft) public {\n        require(!_cryptoNftExists[_nft], \"Error ! This nft already existed\");\n        cryptoNftInfo.push(_nft);\n        uint _id = cryptoNftInfo.length - 1;\n        _mint(msg.sender, _id);\n        _cryptoNftExists[_nft] = true;\n    }\n}",
  "sourcePath": "/Volumes/Multimedia/Work/Solidity/Projects/nft-marketplace-source-main/src/contracts/CryptoNft.sol",
  "compiler": {
    "name": "solc",
    "version": "0.8.14+commit.80d49f37.Emscripten.clang"
  },
  "schemaVersion": "3.4.7",
  "updatedAt": "2022-06-03T09:12:42.312Z",
  "networkType": "ethereum",
  "devdoc": {
    "kind": "dev",
    "methods": {},
    "version": 1
  },
  "userdoc": {
    "kind": "user",
    "methods": {},
    "version": 1
  }
}