{
  "contractName": "CryptoNft",
  "abi": [
    {
      "inputs": [],
      "stateMutability": "nonpayable",
      "type": "constructor"
    },
    {
      "anonymous": false,
      "inputs": [
        {
          "indexed": true,
          "internalType": "address",
          "name": "from",
          "type": "address"
        },
        {
          "indexed": true,
          "internalType": "address",
          "name": "to",
          "type": "address"
        },
        {
          "indexed": true,
          "internalType": "uint256",
          "name": "tokenId",
          "type": "uint256"
        }
      ],
      "name": "Transfer",
      "type": "event"
    },
    {
      "inputs": [
        {
          "internalType": "address",
          "name": "_owner",
          "type": "address"
        }
      ],
      "name": "balanceOf",
      "outputs": [
        {
          "internalType": "uint256",
          "name": "",
          "type": "uint256"
        }
      ],
      "stateMutability": "view",
      "type": "function",
      "constant": true
    },
    {
      "inputs": [
        {
          "internalType": "uint256",
          "name": "",
          "type": "uint256"
        }
      ],
      "name": "cryptoNftInfo",
      "outputs": [
        {
          "internalType": "string",
          "name": "",
          "type": "string"
        }
      ],
      "stateMutability": "view",
      "type": "function",
      "constant": true
    },
    {
      "inputs": [],
      "name": "name",
      "outputs": [
        {
          "internalType": "string",
          "name": "",
          "type": "string"
        }
      ],
      "stateMutability": "view",
      "type": "function",
      "constant": true
    },
    {
      "inputs": [
        {
          "internalType": "uint256",
          "name": "_tokenId",
          "type": "uint256"
        }
      ],
      "name": "ownerOf",
      "outputs": [
        {
          "internalType": "address",
          "name": "",
          "type": "address"
        }
      ],
      "stateMutability": "view",
      "type": "function",
      "constant": true
    },
    {
      "inputs": [],
      "name": "symbol",
      "outputs": [
        {
          "internalType": "string",
          "name": "",
          "type": "string"
        }
      ],
      "stateMutability": "view",
      "type": "function",
      "constant": true
    },
    {
      "inputs": [
        {
          "internalType": "uint256",
          "name": "_index",
          "type": "uint256"
        }
      ],
      "name": "tokenByIndex",
      "outputs": [
        {
          "internalType": "uint256",
          "name": "",
          "type": "uint256"
        }
      ],
      "stateMutability": "view",
      "type": "function",
      "constant": true
    },
    {
      "inputs": [
        {
          "internalType": "address",
          "name": "_owner",
          "type": "address"
        },
        {
          "internalType": "uint256",
          "name": "_index",
          "type": "uint256"
        }
      ],
      "name": "tokenOfOwnerByIndex",
      "outputs": [
        {
          "internalType": "uint256",
          "name": "",
          "type": "uint256"
        }
      ],
      "stateMutability": "view",
      "type": "function",
      "constant": true
    },
    {
      "inputs": [],
      "name": "totalSupply",
      "outputs": [
        {
          "internalType": "uint256",
          "name": "",
          "type": "uint256"
        }
      ],
      "stateMutability": "view",
      "type": "function",
      "constant": true
    },
    {
      "inputs": [
        {
          "internalType": "string",
          "name": "_nft",
          "type": "string"
        }
      ],
      "name": "mint",
      "outputs": [],
      "stateMutability": "nonpayable",
      "type": "function"
    }
  ],
  "bytecode": "0x60806040523480156200001157600080fd5b506040518060400160405280600981526020017f43727970746f4e667400000000000000000000000000000000000000000000008152506040518060400160405280600481526020017f434e4654000000000000000000000000000000000000000000000000000000008152508181816000908051906020019062000098929190620000bc565b508060019080519060200190620000b1929190620000bc565b5050505050620001d0565b828054620000ca906200019b565b90600052602060002090601f016020900481019282620000ee57600085556200013a565b82601f106200010957805160ff19168380011785556200013a565b828001600101855582156200013a579182015b82811115620001395782518255916020019190600101906200011c565b5b5090506200014991906200014d565b5090565b5b80821115620001685760008160009055506001016200014e565b5090565b7f4e487b7100000000000000000000000000000000000000000000000000000000600052602260045260246000fd5b60006002820490506001821680620001b457607f821691505b602082108103620001ca57620001c96200016c565b5b50919050565b61150780620001e06000396000f3fe608060405234801561001057600080fd5b50600436106100935760003560e01c80636352211e116100665780636352211e146101345780636f20b8c31461016457806370a082311461019457806395d89b41146101c4578063d85d3d27146101e257610093565b806306fdde031461009857806318160ddd146100b65780632f745c59146100d45780634f6ccce714610104575b600080fd5b6100a06101fe565b6040516100ad9190610ca8565b60405180910390f35b6100be610290565b6040516100cb9190610ce3565b60405180910390f35b6100ee60048036038101906100e99190610d9c565b61029d565b6040516100fb9190610ce3565b60405180910390f35b61011e60048036038101906101199190610ddc565b610402565b60405161012b9190610ce3565b60405180910390f35b61014e60048036038101906101499190610ddc565b61047d565b60405161015b9190610e18565b60405180910390f35b61017e60048036038101906101799190610ddc565b61052e565b60405161018b9190610ca8565b60405180910390f35b6101ae60048036038101906101a99190610e33565b6105da565b6040516101bb9190610ce3565b60405180910390f35b6101cc610691565b6040516101d99190610ca8565b60405180910390f35b6101fc60048036038101906101f79190610f95565b610723565b005b60606000805461020d9061100d565b80601f01602080910402602001604051908101604052809291908181526020018280546102399061100d565b80156102865780601f1061025b57610100808354040283529160200191610286565b820191906000526020600020905b81548152906001019060200180831161026957829003601f168201915b5050505050905090565b6000600480549050905090565b60008073ffffffffffffffffffffffffffffffffffffffff168373ffffffffffffffffffffffffffffffffffffffff160361030d576040517f08c379a00000000000000000000000000000000000000000000000000000000081526004016103049061108a565b60405180910390fd5b6000821015801561035f5750600660008473ffffffffffffffffffffffffffffffffffffffff1673ffffffffffffffffffffffffffffffffffffffff1681526020019081526020016000208054905082105b61039e576040517f08c379a0000000000000000000000000000000000000000000000000000000008152600401610395906110f6565b60405180910390fd5b600660008473ffffffffffffffffffffffffffffffffffffffff1673ffffffffffffffffffffffffffffffffffffffff16815260200190815260200160002082815481106103ef576103ee611116565b5b9060005260206000200154905092915050565b6000808210158015610418575060048054905082105b610457576040517f08c379a000000000000000000000000000000000000000000000000000000000815260040161044e906110f6565b60405180910390fd5b6004828154811061046b5761046a611116565b5b90600052602060002001549050919050565b6000806002600084815260200190815260200160002060009054906101000a900473ffffffffffffffffffffffffffffffffffffffff169050600073ffffffffffffffffffffffffffffffffffffffff168173ffffffffffffffffffffffffffffffffffffffff1603610525576040517f08c379a000000000000000000000000000000000000000000000000000000000815260040161051c906111b7565b60405180910390fd5b80915050919050565b6008818154811061053e57600080fd5b9060005260206000200160009150905080546105599061100d565b80601f01602080910402602001604051908101604052809291908181526020018280546105859061100d565b80156105d25780601f106105a7576101008083540402835291602001916105d2565b820191906000526020600020905b8154815290600101906020018083116105b557829003601f168201915b505050505081565b60008073ffffffffffffffffffffffffffffffffffffffff168273ffffffffffffffffffffffffffffffffffffffff160361064a576040517f08c379a000000000000000000000000000000000000000000000000000000000815260040161064190611249565b60405180910390fd5b600360008373ffffffffffffffffffffffffffffffffffffffff1673ffffffffffffffffffffffffffffffffffffffff168152602001908152602001600020549050919050565b6060600180546106a09061100d565b80601f01602080910402602001604051908101604052809291908181526020018280546106cc9061100d565b80156107195780601f106106ee57610100808354040283529160200191610719565b820191906000526020600020905b8154815290600101906020018083116106fc57829003601f168201915b5050505050905090565b60098160405161073391906112a5565b908152602001604051809103902060009054906101000a900460ff161561078f576040517f08c379a000000000000000000000000000000000000000000000000000000000815260040161078690611308565b60405180910390fd5b6008819080600181540180825580915050600190039060005260206000200160009091909190915090805190602001906107ca929190610b6c565b50600060016008805490506107df9190611357565b90506107eb3382610826565b60016009836040516107fd91906112a5565b908152602001604051809103902060006101000a81548160ff0219169083151502179055505050565b6108308282610847565b61083981610a5f565b6108438183610aa8565b5050565b600073ffffffffffffffffffffffffffffffffffffffff168273ffffffffffffffffffffffffffffffffffffffff16036108b6576040517f08c379a00000000000000000000000000000000000000000000000000000000081526004016108ad906113d7565b60405180910390fd5b600073ffffffffffffffffffffffffffffffffffffffff166002600083815260200190815260200160002060009054906101000a900473ffffffffffffffffffffffffffffffffffffffff1673ffffffffffffffffffffffffffffffffffffffff1614610958576040517f08c379a000000000000000000000000000000000000000000000000000000000815260040161094f90611469565b60405180910390fd5b816002600083815260200190815260200160002060006101000a81548173ffffffffffffffffffffffffffffffffffffffff021916908373ffffffffffffffffffffffffffffffffffffffff160217905550600360008373ffffffffffffffffffffffffffffffffffffffff1673ffffffffffffffffffffffffffffffffffffffff16815260200190815260200160002060008154809291906109fa90611489565b9190505550808273ffffffffffffffffffffffffffffffffffffffff16600073ffffffffffffffffffffffffffffffffffffffff167fddf252ad1be2c89b69c2b068fc378daa952ba7f163c4a11628f55a4df523b3ef60405160405180910390a45050565b6004805490506005600083815260200190815260200160002081905550600481908060018154018082558091505060019003906000526020600020016000909190919091505550565b600660008273ffffffffffffffffffffffffffffffffffffffff1673ffffffffffffffffffffffffffffffffffffffff168152602001908152602001600020805490506007600084815260200190815260200160002081905550600660008273ffffffffffffffffffffffffffffffffffffffff1673ffffffffffffffffffffffffffffffffffffffff1681526020019081526020016000208290806001815401808255809150506001900390600052602060002001600090919091909150555050565b828054610b789061100d565b90600052602060002090601f016020900481019282610b9a5760008555610be1565b82601f10610bb357805160ff1916838001178555610be1565b82800160010185558215610be1579182015b82811115610be0578251825591602001919060010190610bc5565b5b509050610bee9190610bf2565b5090565b5b80821115610c0b576000816000905550600101610bf3565b5090565b600081519050919050565b600082825260208201905092915050565b60005b83811015610c49578082015181840152602081019050610c2e565b83811115610c58576000848401525b50505050565b6000601f19601f8301169050919050565b6000610c7a82610c0f565b610c848185610c1a565b9350610c94818560208601610c2b565b610c9d81610c5e565b840191505092915050565b60006020820190508181036000830152610cc28184610c6f565b905092915050565b6000819050919050565b610cdd81610cca565b82525050565b6000602082019050610cf86000830184610cd4565b92915050565b6000604051905090565b600080fd5b600080fd5b600073ffffffffffffffffffffffffffffffffffffffff82169050919050565b6000610d3d82610d12565b9050919050565b610d4d81610d32565b8114610d5857600080fd5b50565b600081359050610d6a81610d44565b92915050565b610d7981610cca565b8114610d8457600080fd5b50565b600081359050610d9681610d70565b92915050565b60008060408385031215610db357610db2610d08565b5b6000610dc185828601610d5b565b9250506020610dd285828601610d87565b9150509250929050565b600060208284031215610df257610df1610d08565b5b6000610e0084828501610d87565b91505092915050565b610e1281610d32565b82525050565b6000602082019050610e2d6000830184610e09565b92915050565b600060208284031215610e4957610e48610d08565b5b6000610e5784828501610d5b565b91505092915050565b600080fd5b600080fd5b7f4e487b7100000000000000000000000000000000000000000000000000000000600052604160045260246000fd5b610ea282610c5e565b810181811067ffffffffffffffff82111715610ec157610ec0610e6a565b5b80604052505050565b6000610ed4610cfe565b9050610ee08282610e99565b919050565b600067ffffffffffffffff821115610f0057610eff610e6a565b5b610f0982610c5e565b9050602081019050919050565b82818337600083830152505050565b6000610f38610f3384610ee5565b610eca565b905082815260208101848484011115610f5457610f53610e65565b5b610f5f848285610f16565b509392505050565b600082601f830112610f7c57610f7b610e60565b5b8135610f8c848260208601610f25565b91505092915050565b600060208284031215610fab57610faa610d08565b5b600082013567ffffffffffffffff811115610fc957610fc8610d0d565b5b610fd584828501610f67565b91505092915050565b7f4e487b7100000000000000000000000000000000000000000000000000000000600052602260045260246000fd5b6000600282049050600182168061102557607f821691505b60208210810361103857611037610fde565b5b50919050565b7f4572726f722120496e76616c6964206f776e6572206164647265737321000000600082015250565b6000611074601d83610c1a565b915061107f8261103e565b602082019050919050565b600060208201905081810360008301526110a381611067565b9050919050565b7f4572726f722120496e76616c696420746f6b656e20696e646578210000000000600082015250565b60006110e0601b83610c1a565b91506110eb826110aa565b602082019050919050565b6000602082019050818103600083015261110f816110d3565b9050919050565b7f4e487b7100000000000000000000000000000000000000000000000000000000600052603260045260246000fd5b7f4572726f722120546f6b656e20696420717565727920666f72206e6f6e2d657860008201527f697374656e74206f776e65722e00000000000000000000000000000000000000602082015250565b60006111a1602d83610c1a565b91506111ac82611145565b604082019050919050565b600060208201905081810360008301526111d081611194565b9050919050565b7f4572726f7221204e4654732061737369676e656420746f207a65726f2061646460008201527f726573732061726520636f6e7369646572656420696e76616c69642e00000000602082015250565b6000611233603c83610c1a565b915061123e826111d7565b604082019050919050565b6000602082019050818103600083015261126281611226565b9050919050565b600081905092915050565b600061127f82610c0f565b6112898185611269565b9350611299818560208601610c2b565b80840191505092915050565b60006112b18284611274565b915081905092915050565b7f4572726f7220212054686973206e667420616c72656164792065786973746564600082015250565b60006112f2602083610c1a565b91506112fd826112bc565b602082019050919050565b60006020820190508181036000830152611321816112e5565b9050919050565b7f4e487b7100000000000000000000000000000000000000000000000000000000600052601160045260246000fd5b600061136282610cca565b915061136d83610cca565b9250828210156113805761137f611328565b5b828203905092915050565b7f4572726f722120496e76616c696420696e707574206164647265737321000000600082015250565b60006113c1601d83610c1a565b91506113cc8261138b565b602082019050919050565b600060208201905081810360008301526113f0816113b4565b9050919050565b7f4572726f72212054686520746f6b656e2068617320616c72656164792062656560008201527f6e206d696e7465642e0000000000000000000000000000000000000000000000602082015250565b6000611453602983610c1a565b915061145e826113f7565b604082019050919050565b6000602082019050818103600083015261148281611446565b9050919050565b600061149482610cca565b91507fffffffffffffffffffffffffffffffffffffffffffffffffffffffffffffffff82036114c6576114c5611328565b5b60018201905091905056fea26469706673582212200286728e1a4bd8bf38bc7c10c2f3f8ff8b89b756b8cf810d348c97d85abe665864736f6c634300080e0033",
  "immutableReferences": {},
  "source": "// SPDX-License-Identifier: MIT\npragma solidity ^0.8.0;\n\nimport './ERC721Connector.sol';\n\ncontract CryptoNft is ERC721Connector {\n   \n    string[] public cryptoNftInfo;\n    mapping(string => bool) _cryptoNftExists;\n\n    constructor() ERC721Connector(\"CryptoNft\", \"CNFT\") {\n    \n    }\n\n    function mint(string memory _nft) public {\n        require(!_cryptoNftExists[_nft], \"Error ! This nft already existed\");\n        cryptoNftInfo.push(_nft);\n        uint _id = cryptoNftInfo.length - 1;\n        _mint(msg.sender, _id);\n        _cryptoNftExists[_nft] = true;\n    }\n}",
  "sourcePath": "/Volumes/Multimedia/Work/Solidity/Projects/nft-marketplace-source-main/src/contracts/CryptoNft.sol",
  "compiler": {
    "name": "solc",
    "version": "0.8.14+commit.80d49f37.Emscripten.clang"
  },
  "schemaVersion": "3.4.7",
  "updatedAt": "2022-06-10T15:38:01.532Z",
  "networkType": "ethereum",
  "devdoc": {
    "kind": "dev",
    "methods": {},
    "version": 1
  },
  "userdoc": {
    "kind": "user",
    "methods": {},
    "version": 1
  }
}