{
  "contractName": "ERC721Enumerable",
  "abi": [
    {
      "anonymous": false,
      "inputs": [
        {
          "indexed": true,
          "internalType": "address",
          "name": "from",
          "type": "address"
        },
        {
          "indexed": true,
          "internalType": "address",
          "name": "to",
          "type": "address"
        },
        {
          "indexed": true,
          "internalType": "uint256",
          "name": "tokenId",
          "type": "uint256"
        }
      ],
      "name": "Transfer",
      "type": "event"
    },
    {
      "inputs": [
        {
          "internalType": "address",
          "name": "_owner",
          "type": "address"
        }
      ],
      "name": "balanceOf",
      "outputs": [
        {
          "internalType": "uint256",
          "name": "",
          "type": "uint256"
        }
      ],
      "stateMutability": "view",
      "type": "function"
    },
    {
      "inputs": [
        {
          "internalType": "uint256",
          "name": "_tokenId",
          "type": "uint256"
        }
      ],
      "name": "ownerOf",
      "outputs": [
        {
          "internalType": "address",
          "name": "",
          "type": "address"
        }
      ],
      "stateMutability": "view",
      "type": "function"
    },
    {
      "inputs": [],
      "name": "totalSupply",
      "outputs": [
        {
          "internalType": "uint256",
          "name": "",
          "type": "uint256"
        }
      ],
      "stateMutability": "view",
      "type": "function"
    },
    {
      "inputs": [
        {
          "internalType": "uint256",
          "name": "_index",
          "type": "uint256"
        }
      ],
      "name": "tokenByIndex",
      "outputs": [
        {
          "internalType": "uint256",
          "name": "",
          "type": "uint256"
        }
      ],
      "stateMutability": "view",
      "type": "function"
    }
  ],
  "bytecode": "0x608060405234801561001057600080fd5b5061063b806100206000396000f3fe608060405234801561001057600080fd5b506004361061004c5760003560e01c806318160ddd146100515780634f6ccce71461006f5780636352211e1461009f57806370a08231146100cf575b600080fd5b6100596100ff565b6040516100669190610307565b60405180910390f35b61008960048036038101906100849190610353565b61010c565b6040516100969190610307565b60405180910390f35b6100b960048036038101906100b49190610353565b610187565b6040516100c691906103c1565b60405180910390f35b6100e960048036038101906100e49190610408565b610237565b6040516100f69190610307565b60405180910390f35b6000600280549050905090565b6000808210158015610122575060028054905082105b610161576040517f08c379a000000000000000000000000000000000000000000000000000000000815260040161015890610492565b60405180910390fd5b60028281548110610175576101746104b2565b5b90600052602060002001549050919050565b60008060008084815260200190815260200160002060009054906101000a900473ffffffffffffffffffffffffffffffffffffffff169050600073ffffffffffffffffffffffffffffffffffffffff168173ffffffffffffffffffffffffffffffffffffffff160361022e576040517f08c379a000000000000000000000000000000000000000000000000000000000815260040161022590610553565b60405180910390fd5b80915050919050565b60008073ffffffffffffffffffffffffffffffffffffffff168273ffffffffffffffffffffffffffffffffffffffff16036102a7576040517f08c379a000000000000000000000000000000000000000000000000000000000815260040161029e906105e5565b60405180910390fd5b600160008373ffffffffffffffffffffffffffffffffffffffff1673ffffffffffffffffffffffffffffffffffffffff168152602001908152602001600020549050919050565b6000819050919050565b610301816102ee565b82525050565b600060208201905061031c60008301846102f8565b92915050565b600080fd5b610330816102ee565b811461033b57600080fd5b50565b60008135905061034d81610327565b92915050565b60006020828403121561036957610368610322565b5b60006103778482850161033e565b91505092915050565b600073ffffffffffffffffffffffffffffffffffffffff82169050919050565b60006103ab82610380565b9050919050565b6103bb816103a0565b82525050565b60006020820190506103d660008301846103b2565b92915050565b6103e5816103a0565b81146103f057600080fd5b50565b600081359050610402816103dc565b92915050565b60006020828403121561041e5761041d610322565b5b600061042c848285016103f3565b91505092915050565b600082825260208201905092915050565b7f4572726f722120496e76616c696420746f6b656e20696e646578210000000000600082015250565b600061047c601b83610435565b915061048782610446565b602082019050919050565b600060208201905081810360008301526104ab8161046f565b9050919050565b7f4e487b7100000000000000000000000000000000000000000000000000000000600052603260045260246000fd5b7f4572726f722120546f6b656e20696420717565727920666f72206e6f6e2d657860008201527f697374656e74206f776e65722e00000000000000000000000000000000000000602082015250565b600061053d602d83610435565b9150610548826104e1565b604082019050919050565b6000602082019050818103600083015261056c81610530565b9050919050565b7f4572726f7221204e4654732061737369676e656420746f207a65726f2061646460008201527f726573732061726520636f6e7369646572656420696e76616c69642e00000000602082015250565b60006105cf603c83610435565b91506105da82610573565b604082019050919050565b600060208201905081810360008301526105fe816105c2565b905091905056fea26469706673582212208eee1853e6e95f7cd19a24c96a72787c79d37d4d9b6c98a16645a5ec650ceb9e64736f6c634300080e0033",
  "immutableReferences": {},
  "source": "// SPDX-License-Identifier: MIT\npragma solidity ^0.8.0;\n\nimport './ERC721.sol';\n\ncontract ERC721Enumerable is ERC721 {\n\n    //keep track of all tokens\n    uint[] private _allTokens;\n\n    //mapping of a token id to position in all token array\n    mapping(uint => uint) private _allTokenIndex;\n    \n    //mapping of a owner to the list of all owner tokenId \n    mapping(address => uint[]) private _ownerTokens;\n\n    //mapping of token id to token index of owner tokens\n    mapping(uint => uint) private _ownerTokensIndex;\n\n    function totalSupply() external view returns (uint256){\n        return _allTokens.length;\n    }\n\n    function tokenByIndex(uint256 _index) external view returns (uint256){\n        require(_index >= 0 && _index < _allTokens.length, \"Error! Invalid token index!\");\n        return _allTokens[_index];\n    }\n\n    // function tokenOfOwnerByIndex(address _owner, uint256 _index) external view returns (uint256){\n\n    // }\n\n    function _mint(address to, uint tokenId) internal override(ERC721) {\n        super._mint(to, tokenId);\n        _addTokenToTotalSupply(tokenId);\n    }\n\n    function _addTokenToTotalSupply(uint tokenId) private {\n\n        _allTokens.push(tokenId);\n    }\n}",
  "sourcePath": "/Volumes/Multimedia/Work/Solidity/Projects/nft-marketplace-source-main/src/contracts/ERC721Enumerable.sol",
  "compiler": {
    "name": "solc",
    "version": "0.8.14+commit.80d49f37.Emscripten.clang"
  },
  "schemaVersion": "3.4.7",
  "updatedAt": "2022-06-04T07:27:31.800Z",
  "devdoc": {
    "kind": "dev",
    "methods": {},
    "version": 1
  },
  "userdoc": {
    "kind": "user",
    "methods": {},
    "version": 1
  }
}