{
  "contractName": "ERC721Connector",
  "abi": [
    {
      "inputs": [
        {
          "internalType": "string",
          "name": "name",
          "type": "string"
        },
        {
          "internalType": "string",
          "name": "symbol",
          "type": "string"
        }
      ],
      "stateMutability": "nonpayable",
      "type": "constructor"
    },
    {
      "anonymous": false,
      "inputs": [
        {
          "indexed": true,
          "internalType": "address",
          "name": "from",
          "type": "address"
        },
        {
          "indexed": true,
          "internalType": "address",
          "name": "to",
          "type": "address"
        },
        {
          "indexed": true,
          "internalType": "uint256",
          "name": "tokenId",
          "type": "uint256"
        }
      ],
      "name": "Transfer",
      "type": "event"
    },
    {
      "inputs": [
        {
          "internalType": "address",
          "name": "_owner",
          "type": "address"
        }
      ],
      "name": "balanceOf",
      "outputs": [
        {
          "internalType": "uint256",
          "name": "",
          "type": "uint256"
        }
      ],
      "stateMutability": "view",
      "type": "function"
    },
    {
      "inputs": [],
      "name": "name",
      "outputs": [
        {
          "internalType": "string",
          "name": "",
          "type": "string"
        }
      ],
      "stateMutability": "view",
      "type": "function"
    },
    {
      "inputs": [
        {
          "internalType": "uint256",
          "name": "_tokenId",
          "type": "uint256"
        }
      ],
      "name": "ownerOf",
      "outputs": [
        {
          "internalType": "address",
          "name": "",
          "type": "address"
        }
      ],
      "stateMutability": "view",
      "type": "function"
    },
    {
      "inputs": [],
      "name": "symbol",
      "outputs": [
        {
          "internalType": "string",
          "name": "",
          "type": "string"
        }
      ],
      "stateMutability": "view",
      "type": "function"
    },
    {
      "inputs": [
        {
          "internalType": "uint256",
          "name": "_index",
          "type": "uint256"
        }
      ],
      "name": "tokenByIndex",
      "outputs": [
        {
          "internalType": "uint256",
          "name": "",
          "type": "uint256"
        }
      ],
      "stateMutability": "view",
      "type": "function"
    },
    {
      "inputs": [
        {
          "internalType": "address",
          "name": "_owner",
          "type": "address"
        },
        {
          "internalType": "uint256",
          "name": "_index",
          "type": "uint256"
        }
      ],
      "name": "tokenOfOwnerByIndex",
      "outputs": [
        {
          "internalType": "uint256",
          "name": "",
          "type": "uint256"
        }
      ],
      "stateMutability": "view",
      "type": "function"
    },
    {
      "inputs": [],
      "name": "totalSupply",
      "outputs": [
        {
          "internalType": "uint256",
          "name": "",
          "type": "uint256"
        }
      ],
      "stateMutability": "view",
      "type": "function"
    }
  ],
  "bytecode": "0x60806040523480156200001157600080fd5b5060405162000ed338038062000ed38339818101604052810190620000379190620002c2565b818181600090805190602001906200005192919062000075565b5080600190805190602001906200006a92919062000075565b5050505050620003ab565b828054620000839062000376565b90600052602060002090601f016020900481019282620000a75760008555620000f3565b82601f10620000c257805160ff1916838001178555620000f3565b82800160010185558215620000f3579182015b82811115620000f2578251825591602001919060010190620000d5565b5b50905062000102919062000106565b5090565b5b808211156200012157600081600090555060010162000107565b5090565b6000604051905090565b600080fd5b600080fd5b600080fd5b600080fd5b6000601f19601f8301169050919050565b7f4e487b7100000000000000000000000000000000000000000000000000000000600052604160045260246000fd5b6200018e8262000143565b810181811067ffffffffffffffff82111715620001b057620001af62000154565b5b80604052505050565b6000620001c562000125565b9050620001d3828262000183565b919050565b600067ffffffffffffffff821115620001f657620001f562000154565b5b620002018262000143565b9050602081019050919050565b60005b838110156200022e57808201518184015260208101905062000211565b838111156200023e576000848401525b50505050565b60006200025b6200025584620001d8565b620001b9565b9050828152602081018484840111156200027a57620002796200013e565b5b620002878482856200020e565b509392505050565b600082601f830112620002a757620002a662000139565b5b8151620002b984826020860162000244565b91505092915050565b60008060408385031215620002dc57620002db6200012f565b5b600083015167ffffffffffffffff811115620002fd57620002fc62000134565b5b6200030b858286016200028f565b925050602083015167ffffffffffffffff8111156200032f576200032e62000134565b5b6200033d858286016200028f565b9150509250929050565b7f4e487b7100000000000000000000000000000000000000000000000000000000600052602260045260246000fd5b600060028204905060018216806200038f57607f821691505b602082108103620003a557620003a462000347565b5b50919050565b610b1880620003bb6000396000f3fe608060405234801561001057600080fd5b506004361061007d5760003560e01c80634f6ccce71161005b5780634f6ccce7146100ee5780636352211e1461011e57806370a082311461014e57806395d89b411461017e5761007d565b806306fdde031461008257806318160ddd146100a05780632f745c59146100be575b600080fd5b61008a61019c565b60405161009791906106ae565b60405180910390f35b6100a861022e565b6040516100b591906106e9565b60405180910390f35b6100d860048036038101906100d39190610793565b61023b565b6040516100e591906106e9565b60405180910390f35b610108600480360381019061010391906107d3565b6103a0565b60405161011591906106e9565b60405180910390f35b610138600480360381019061013391906107d3565b61041b565b604051610145919061080f565b60405180910390f35b6101686004803603810190610163919061082a565b6104cc565b60405161017591906106e9565b60405180910390f35b610186610583565b60405161019391906106ae565b60405180910390f35b6060600080546101ab90610886565b80601f01602080910402602001604051908101604052809291908181526020018280546101d790610886565b80156102245780601f106101f957610100808354040283529160200191610224565b820191906000526020600020905b81548152906001019060200180831161020757829003601f168201915b5050505050905090565b6000600480549050905090565b60008073ffffffffffffffffffffffffffffffffffffffff168373ffffffffffffffffffffffffffffffffffffffff16036102ab576040517f08c379a00000000000000000000000000000000000000000000000000000000081526004016102a290610903565b60405180910390fd5b600082101580156102fd5750600660008473ffffffffffffffffffffffffffffffffffffffff1673ffffffffffffffffffffffffffffffffffffffff1681526020019081526020016000208054905082105b61033c576040517f08c379a00000000000000000000000000000000000000000000000000000000081526004016103339061096f565b60405180910390fd5b600660008473ffffffffffffffffffffffffffffffffffffffff1673ffffffffffffffffffffffffffffffffffffffff168152602001908152602001600020828154811061038d5761038c61098f565b5b9060005260206000200154905092915050565b60008082101580156103b6575060048054905082105b6103f5576040517f08c379a00000000000000000000000000000000000000000000000000000000081526004016103ec9061096f565b60405180910390fd5b600482815481106104095761040861098f565b5b90600052602060002001549050919050565b6000806002600084815260200190815260200160002060009054906101000a900473ffffffffffffffffffffffffffffffffffffffff169050600073ffffffffffffffffffffffffffffffffffffffff168173ffffffffffffffffffffffffffffffffffffffff16036104c3576040517f08c379a00000000000000000000000000000000000000000000000000000000081526004016104ba90610a30565b60405180910390fd5b80915050919050565b60008073ffffffffffffffffffffffffffffffffffffffff168273ffffffffffffffffffffffffffffffffffffffff160361053c576040517f08c379a000000000000000000000000000000000000000000000000000000000815260040161053390610ac2565b60405180910390fd5b600360008373ffffffffffffffffffffffffffffffffffffffff1673ffffffffffffffffffffffffffffffffffffffff168152602001908152602001600020549050919050565b60606001805461059290610886565b80601f01602080910402602001604051908101604052809291908181526020018280546105be90610886565b801561060b5780601f106105e05761010080835404028352916020019161060b565b820191906000526020600020905b8154815290600101906020018083116105ee57829003601f168201915b5050505050905090565b600081519050919050565b600082825260208201905092915050565b60005b8381101561064f578082015181840152602081019050610634565b8381111561065e576000848401525b50505050565b6000601f19601f8301169050919050565b600061068082610615565b61068a8185610620565b935061069a818560208601610631565b6106a381610664565b840191505092915050565b600060208201905081810360008301526106c88184610675565b905092915050565b6000819050919050565b6106e3816106d0565b82525050565b60006020820190506106fe60008301846106da565b92915050565b600080fd5b600073ffffffffffffffffffffffffffffffffffffffff82169050919050565b600061073482610709565b9050919050565b61074481610729565b811461074f57600080fd5b50565b6000813590506107618161073b565b92915050565b610770816106d0565b811461077b57600080fd5b50565b60008135905061078d81610767565b92915050565b600080604083850312156107aa576107a9610704565b5b60006107b885828601610752565b92505060206107c98582860161077e565b9150509250929050565b6000602082840312156107e9576107e8610704565b5b60006107f78482850161077e565b91505092915050565b61080981610729565b82525050565b60006020820190506108246000830184610800565b92915050565b6000602082840312156108405761083f610704565b5b600061084e84828501610752565b91505092915050565b7f4e487b7100000000000000000000000000000000000000000000000000000000600052602260045260246000fd5b6000600282049050600182168061089e57607f821691505b6020821081036108b1576108b0610857565b5b50919050565b7f4572726f722120496e76616c6964206f776e6572206164647265737321000000600082015250565b60006108ed601d83610620565b91506108f8826108b7565b602082019050919050565b6000602082019050818103600083015261091c816108e0565b9050919050565b7f4572726f722120496e76616c696420746f6b656e20696e646578210000000000600082015250565b6000610959601b83610620565b915061096482610923565b602082019050919050565b600060208201905081810360008301526109888161094c565b9050919050565b7f4e487b7100000000000000000000000000000000000000000000000000000000600052603260045260246000fd5b7f4572726f722120546f6b656e20696420717565727920666f72206e6f6e2d657860008201527f697374656e74206f776e65722e00000000000000000000000000000000000000602082015250565b6000610a1a602d83610620565b9150610a25826109be565b604082019050919050565b60006020820190508181036000830152610a4981610a0d565b9050919050565b7f4572726f7221204e4654732061737369676e656420746f207a65726f2061646460008201527f726573732061726520636f6e7369646572656420696e76616c69642e00000000602082015250565b6000610aac603c83610620565b9150610ab782610a50565b604082019050919050565b60006020820190508181036000830152610adb81610a9f565b905091905056fea264697066735822122033c02bd9a4ae4be05bc99352473bcf39791f9fb64c223c2f240be0eb03dcf9d864736f6c634300080e0033",
  "immutableReferences": {},
  "source": "// SPDX-License-Identifier: MIT\npragma solidity ^0.8.0;\n\nimport './ERC721Metadata.sol';\nimport './ERC721.sol';\nimport './ERC721Enumerable.sol';\n\ncontract ERC721Connector is ERC721Metadata, ERC721Enumerable {\n\n    constructor(string memory name, string memory symbol) ERC721Metadata(name, symbol) {\n\n    }\n}",
  "sourcePath": "/Volumes/Multimedia/Work/Solidity/Projects/nft-marketplace-source-main/src/contracts/ERC721Connector.sol",
  "compiler": {
    "name": "solc",
    "version": "0.8.14+commit.80d49f37.Emscripten.clang"
  },
  "schemaVersion": "3.4.7",
  "updatedAt": "2022-06-10T15:37:48.271Z",
  "devdoc": {
    "kind": "dev",
    "methods": {},
    "version": 1
  },
  "userdoc": {
    "kind": "user",
    "methods": {},
    "version": 1
  }
}